S018000041546D6567613332415F54696D6572302E73726563A7
S11300000C942A000C943C000C943C000C943C008E
S11300100C943C000C943C000C943C000C943C006C
S11300200C943C000C943C000C9452000C947B0007
S11300300C943C000C943C000C943C000C943C004C
S11300400C943C000C943C000C943C000C943C003C
S11300500C943C0011241FBECFE5D8E0DEBFCDBF19
S113006020E0A0E6B0E001C01D92A436B207E1F79B
S11300700E943E000C94CC020C94000042E063E029
S113008086E390E00E94E70020E040E260E484E040
S11300900E94A40040E260E070E08CE892E40E94D8
S11300A0AE00FFCF1F920F920FB60F9211242F9321
S11300B03F934F935F936F937F938F939F93AF93EC
S11300C0BF93EF93FF93E0916000F091610030974C
S11300D009F00995FF91EF91BF91AF919F918F9195
S11300E07F916F915F914F913F912F910F900FBE30
S11300F00F901F9018951F920F920FB60F92112414
S11301002F933F934F935F936F937F938F939F931B
S1130110AF93BF93EF93FF93E0916200F09163007C
S1130120309709F00995FF91EF91BF91AF919F919D
S11301308F917F916F915F914F913F912F910F908C
S11301400FBE0F901F901895642B862B83BF89B721
S11301508C7F89BF89B7282B29BF0895403219F0B5
S11301604033B9F0089520E030E048EC52E40E94B6
S1130170840120E030E04FE753E40E94690220E06C
S113018030E040E05FE30E9420010E94EC016CBF7C
S113019008959B01AC0160E070E088EC92E40E9459
S11301A01F0120E030E048EC52E40E94840120E08A
S11301B030E04FE753E40E94690220E030E040E081
S11301C05FE30E9420010E94EC016CBF0895FC01D2
S11301D04130B1F018F0423029F10895218181E0D5
S11301E090E0AC0102C0440F551F6A95E2F7BA01D2
S11301F06095862F82238183828168236283089598
S1130200218181E090E0AC0102C0440F551F6A9542
S1130210E2F7BA01842F8095822381838281682B3F
S113022062830895218181E090E0AC0102C0440F13
S1130230551F6A95E2F7BA01622B618308955058FD
S1130240BB27AA270ED00BC1FCD030F001D120F07F
S113025031F49F3F11F41EF4F1C00EF4E095E7FB76
S1130260E7C0E92F0DD180F3BA176207730784073B
S1130270950718F071F49EF525C10EF4E0950B2E48
S1130280BA2FA02D0B01B90190010C01CA01A001E4
S11302901124FF27591B99F0593F50F4503E68F13F
S11302A01A16F040A22F232F342F4427585FF3CF80
S11302B0469537952795A795F0405395C9F77EF451
S11302C01F16BA0B620B730B840BBAF09150A1F09A
S11302D0FF0FBB1F661F771F881FC2F70EC0BA0F20
S11302E0621F731F841F48F4879577956795B795A8
S11302F0F7959E3F08F0B3CF9395880F08F09927A0
S1130300EE0F9795879508950CD0A9C0A1D040F021
S113031098D030F021F45F3F19F08AC05111D3C056
S11303208DC0AED098F39923C9F35523B1F3951B2F
S1130330550BBB27AA2762177307840738F09F5F02
S11303405F4F220F331F441FAA1FA9F333D00E2E71
S11303503AF0E0E830D091505040E695001CCAF7DE
S113036029D0FE2F27D0660F771F881FBB1F2617A3
S113037037074807AB07B0E809F0BB0B802DBF0176
S1130380FF2793585F4F2AF09E3F510568F050C0F5
S11303909AC05F3FECF3983EDCF3869577956795BA
S11303A0B795F7959F5FC9F7880F911D9695879527
S11303B097F90895E1E0660F771F881FBB1F621746
S11303C073078407BA0720F0621B730B840BBA0B04
S11303D0EE1F88F7E09508955BD088F09F5790F062
S11303E0B92F9927B751A0F0D1F0660F771F881F56
S11303F0991F1AF0BA95C9F712C0B13081F062D0D2
S1130400B1E008955FC0672F782F8827B85F39F06F
S1130410B93FCCF3869577956795B395D9F73EF4B4
S113042090958095709561957F4F8F4F9F4F08955C
S113043097F99F6780E870E060E008959FEF80EC93
S1130440089500240A941616170618060906089536
S113045000240A9412161306140605060895092E9C
S11304600394000C11F4882352F0BB0F40F4BF2B0B
S113047011F460FF04C06F5F7F4F8F4F9F4F08954B
S113048057FD9058440F551F59F05F3F71F0479541
S1130490880F97FB991F61F09F3F79F08795089526
S11304A0121613061406551FF2CF4695F1DF08C045
S11304B0161617061806991FF1CF86957105610562
S11304C008940895E894BB2766277727CB0197F90A
S11304D008950BD0C4CFB5DF28F0BADF18F0952308
S11304E009F0A6CFABCF1124EECFCADFA0F3959FBE
S11304F0D1F3950F50E0551F629FF001729FBB2707
S1130500F00DB11D639FAA27F00DB11DAA1F649FB2
S11305106627B00DA11D661F829F2227B00DA11D65
S1130520621F739FB00DA11D621F839FA00D611DEB
S1130530221F749F3327A00D611D231F849F600D0C
S1130540211D822F762F6A2F11249F5750408AF045
S1130550E1F088234AF0EE0FFF1FBB1F661F771FD1
S1130560881F91505040A9F79E3F510570F060CF0D
S1130570AACF5F3FECF3983EDCF3869577956795B9
S1130580B795F795E7959F5FC1F7FE2B880F911DEF
S10F05909695879597F90895F894FFCF8D
S9030000FC
